{
  "_format": "hh-sol-artifact-1",
  "contractName": "Assessment",
  "sourceName": "contracts/Assessment.sol",
  "abi": [
    {
      "inputs": [
        {
          "internalType": "uint256",
          "name": "initBalance",
          "type": "uint256"
        }
      ],
      "stateMutability": "payable",
      "type": "constructor"
    },
    {
      "inputs": [
        {
          "internalType": "uint256",
          "name": "balance",
          "type": "uint256"
        },
        {
          "internalType": "uint256",
          "name": "withdrawAmount",
          "type": "uint256"
        }
      ],
      "name": "InsufficientBalance",
      "type": "error"
    },
    {
      "anonymous": false,
      "inputs": [
        {
          "indexed": false,
          "internalType": "uint256",
          "name": "amount",
          "type": "uint256"
        }
      ],
      "name": "Deposit",
      "type": "event"
    },
    {
      "anonymous": false,
      "inputs": [
        {
          "indexed": false,
          "internalType": "uint256",
          "name": "amount",
          "type": "uint256"
        }
      ],
      "name": "Withdraw",
      "type": "event"
    },
    {
      "inputs": [],
      "name": "balance",
      "outputs": [
        {
          "internalType": "uint256",
          "name": "",
          "type": "uint256"
        }
      ],
      "stateMutability": "view",
      "type": "function"
    },
    {
      "inputs": [
        {
          "internalType": "uint256",
          "name": "b",
          "type": "uint256"
        }
      ],
      "name": "decrement",
      "outputs": [
        {
          "internalType": "uint256",
          "name": "",
          "type": "uint256"
        }
      ],
      "stateMutability": "pure",
      "type": "function"
    },
    {
      "inputs": [
        {
          "internalType": "uint256",
          "name": "_amount",
          "type": "uint256"
        }
      ],
      "name": "deposit",
      "outputs": [],
      "stateMutability": "payable",
      "type": "function"
    },
    {
      "inputs": [
        {
          "internalType": "uint256",
          "name": "a",
          "type": "uint256"
        },
        {
          "internalType": "uint256",
          "name": "b",
          "type": "uint256"
        }
      ],
      "name": "divide",
      "outputs": [
        {
          "internalType": "uint256",
          "name": "",
          "type": "uint256"
        }
      ],
      "stateMutability": "pure",
      "type": "function"
    },
    {
      "inputs": [],
      "name": "getBalance",
      "outputs": [
        {
          "internalType": "uint256",
          "name": "",
          "type": "uint256"
        }
      ],
      "stateMutability": "view",
      "type": "function"
    },
    {
      "inputs": [
        {
          "internalType": "uint256",
          "name": "a",
          "type": "uint256"
        }
      ],
      "name": "increment",
      "outputs": [
        {
          "internalType": "uint256",
          "name": "",
          "type": "uint256"
        }
      ],
      "stateMutability": "pure",
      "type": "function"
    },
    {
      "inputs": [
        {
          "internalType": "uint256",
          "name": "a",
          "type": "uint256"
        },
        {
          "internalType": "uint256",
          "name": "b",
          "type": "uint256"
        }
      ],
      "name": "modulo",
      "outputs": [
        {
          "internalType": "uint256",
          "name": "",
          "type": "uint256"
        }
      ],
      "stateMutability": "pure",
      "type": "function"
    },
    {
      "inputs": [],
      "name": "owner",
      "outputs": [
        {
          "internalType": "address payable",
          "name": "",
          "type": "address"
        }
      ],
      "stateMutability": "view",
      "type": "function"
    },
    {
      "inputs": [
        {
          "internalType": "uint256",
          "name": "_withdrawAmount",
          "type": "uint256"
        }
      ],
      "name": "withdraw",
      "outputs": [],
      "stateMutability": "nonpayable",
      "type": "function"
    }
  ],
  "bytecode": "0x6080604052604051610998380380610998833981810160405281019061002591906100ad565b336000806101000a81548173ffffffffffffffffffffffffffffffffffffffff021916908373ffffffffffffffffffffffffffffffffffffffff16021790555080600181905550506100da565b600080fd5b6000819050919050565b61008a81610077565b811461009557600080fd5b50565b6000815190506100a781610081565b92915050565b6000602082840312156100c3576100c2610072565b5b60006100d184828501610098565b91505092915050565b6108af806100e96000396000f3fe6080604052600436106100865760003560e01c80638da5cb5b116100595780638da5cb5b14610159578063b69ef8a814610184578063b6b55f25146101af578063baaf073d146101cb578063f88e9fbf1461020857610086565b806312065fe01461008b5780632e1a7d4d146100b65780633a9ebefd146100df5780637cf5dab01461011c575b600080fd5b34801561009757600080fd5b506100a0610245565b6040516100ad9190610541565b60405180910390f35b3480156100c257600080fd5b506100dd60048036038101906100d8919061058d565b61024f565b005b3480156100eb57600080fd5b506101066004803603810190610101919061058d565b6103a0565b6040516101139190610541565b60405180910390f35b34801561012857600080fd5b50610143600480360381019061013e919061058d565b6103b6565b6040516101509190610541565b60405180910390f35b34801561016557600080fd5b5061016e6103cc565b60405161017b91906105fb565b60405180910390f35b34801561019057600080fd5b506101996103f0565b6040516101a69190610541565b60405180910390f35b6101c960048036038101906101c4919061058d565b6103f6565b005b3480156101d757600080fd5b506101f260048036038101906101ed9190610616565b6104fc565b6040516101ff9190610541565b60405180910390f35b34801561021457600080fd5b5061022f600480360381019061022a9190610616565b610512565b60405161023c9190610541565b60405180910390f35b6000600154905090565b60008054906101000a900473ffffffffffffffffffffffffffffffffffffffff1673ffffffffffffffffffffffffffffffffffffffff163373ffffffffffffffffffffffffffffffffffffffff16146102dd576040517f08c379a00000000000000000000000000000000000000000000000000000000081526004016102d4906106d9565b60405180910390fd5b6000600154905081600154101561032f57600154826040517fcf4791810000000000000000000000000000000000000000000000000000000081526004016103269291906106f9565b60405180910390fd5b81600160008282546103419190610751565b9250508190555081816103549190610751565b6001541461036557610364610785565b5b7f5b6b431d4476a211bb7d41c20d1aab9ae2321deee0d20be3d9fc9b1093fa6e3d826040516103949190610541565b60405180910390a15050565b60006001826103af9190610751565b9050919050565b60006001826103c591906107b4565b9050919050565b60008054906101000a900473ffffffffffffffffffffffffffffffffffffffff1681565b60015481565b6000600154905060008054906101000a900473ffffffffffffffffffffffffffffffffffffffff1673ffffffffffffffffffffffffffffffffffffffff163373ffffffffffffffffffffffffffffffffffffffff161461048b576040517f08c379a0000000000000000000000000000000000000000000000000000000008152600401610482906106d9565b60405180910390fd5b816001600082825461049d91906107b4565b9250508190555081816104b091906107b4565b600154146104c1576104c0610785565b5b7f4d6ce1e535dbade1c23defba91e23b8f791ce5edc0cc320257a2b364e4e38426826040516104f09190610541565b60405180910390a15050565b6000818361050a9190610817565b905092915050565b600081836105209190610848565b905092915050565b6000819050919050565b61053b81610528565b82525050565b60006020820190506105566000830184610532565b92915050565b600080fd5b61056a81610528565b811461057557600080fd5b50565b60008135905061058781610561565b92915050565b6000602082840312156105a3576105a261055c565b5b60006105b184828501610578565b91505092915050565b600073ffffffffffffffffffffffffffffffffffffffff82169050919050565b60006105e5826105ba565b9050919050565b6105f5816105da565b82525050565b600060208201905061061060008301846105ec565b92915050565b6000806040838503121561062d5761062c61055c565b5b600061063b85828601610578565b925050602061064c85828601610578565b9150509250929050565b600082825260208201905092915050565b7f596f7520617265206e6f7420746865206f776e6572206f66207468697320616360008201527f636f756e74000000000000000000000000000000000000000000000000000000602082015250565b60006106c3602583610656565b91506106ce82610667565b604082019050919050565b600060208201905081810360008301526106f2816106b6565b9050919050565b600060408201905061070e6000830185610532565b61071b6020830184610532565b9392505050565b7f4e487b7100000000000000000000000000000000000000000000000000000000600052601160045260246000fd5b600061075c82610528565b915061076783610528565b925082820390508181111561077f5761077e610722565b5b92915050565b7f4e487b7100000000000000000000000000000000000000000000000000000000600052600160045260246000fd5b60006107bf82610528565b91506107ca83610528565b92508282019050808211156107e2576107e1610722565b5b92915050565b7f4e487b7100000000000000000000000000000000000000000000000000000000600052601260045260246000fd5b600061082282610528565b915061082d83610528565b92508261083d5761083c6107e8565b5b828206905092915050565b600061085382610528565b915061085e83610528565b92508261086e5761086d6107e8565b5b82820490509291505056fea264697066735822122059089a66d9c89d9547e3ab73786078cd7913a83fa1b6ca9b0c363480aec7834064736f6c63430008110033",
  "linkReferences": {},
  "deployedLinkReferences": {}
}